:020000040000FA
:1000000083160313880183120313880188000000FC
:1000100006180E28402006180E281E2000008618FC
:1000200007284020861807281620072800000330DC
:10003000A20040202620A20B1A280800000003304E
:10004000A20033204020A20B21280800093088009C
:1000500040200530880040200630880040200A30CB
:100060008800402008000A308800402006308800C0
:1000700040200530880040200930880040200800DA
:100080006030A1006030A000A00B4428A10B4228E2
:02009000080066
:00000001FF
