:020000040000FA
:1000000083160313880183120313880188000A30C2
:10001000A3000030A2000000061812284020061895
:1000200012281A20000086180B28402086180B285A
:1000300022200B2800003B20A20A2208A30B080064
:100040004920080000003B20A30A2308A20B080057
:100050004F20080082078834ED349434A434E1340E
:10006000A2348234EC348034E03408000800080004
:10007000080008000800000022082A208800080064
:100080000030A1000030A000A00B4428A10B4228A2
:10009000080000000A30A3000030A20008000000A1
:0E00A0000030A3000930A2002A2088000800CA
:00000001FF
