:020000040000FA
:10000000FF0E926E956A0E0E936E1F0E7E6E000EA0
:100010007F6EA0EC00F0A7EC00F0AFEC00F046EC37
:1000200000F009EF00F0C60E836EB5EC00F0930E01
:10003000836EB5EC00F0390E836EB5EC00F06C0EFB
:10004000836EB5EC00F01200060E836EB5EC00F086
:10005000030E836EB5EC00F0090E836EB5EC00F074
:100060000C0E836EB5EC00F01200C00E836EB5EC82
:1000700000F0900E836EB5EC00F0300E836EB5ECA0
:1000800000F0600E836EB5EC00F012006C0E836E13
:10009000B5EC00F0390E836EB5EC00F0930E836E74
:1000A000B5EC00F0C60E836EB5EC00F01200000057
:1000B0000C0E836EB5EC00F0090E836EB5EC00F00B
:1000C000030E836EB5EC00F0060E836EB5EC00F007
:1000D00012000000600E836EB5EC00F0300E836EEF
:1000E000B5EC00F0900E836EB5EC00F0600E836E00
:1000F000B5EC00F01200000024EC00F0222E7BEFA3
:1001000000F0190E226E000013EC00F0222E83EF97
:1001100000F01200000035EC00F0222E8AEF00F013
:10012000190E226E000013EC00F0222E92EF00F068
:100130001200000046EC00F0222E99EF00F01200B1
:10014000320E226E81B212008AEC00F01200000022
:10015000320E226E81B412007BEC00F0120000001F
:1001600081B6120099EC00F01200200E216E200ED4
:10017000206E202EB9EF00F0212EB7EF00F0120014
:0C018000320E226E202EC2EF00F01200A2
:020000040030CA
:0300010008071ECF
:020005000B816D
:060008000FC00FE00F40E5
:00000001FF
