:020000040000FA
:10000000FF0E926E956A0E0E936E1F0E7E6E000EA0
:100010007F6EA1EC00F0A7EC00F0AEEC00F048EC35
:1000200000F009EF00F0C60E836EB3EC00F0930E03
:10003000836EB3EC00F0390E836EB3EC00F06C0EFF
:10004000836EB3EC00F012000000060E836EB3EC7A
:1000500000F0030E836EB3EC00F0090E836EB3EC78
:1000600000F00C0E836EB3EC00F012000000C00E26
:10007000836EB3EC00F0900E836EB3EC00F0300EA4
:10008000836EB3EC00F0600E836EB3EC00F01200F0
:100090006C0E836EB3EC00F0390E836EB3EC00F09F
:1000A000930E836EB3EC00F0C60E836EB3EC00F0DB
:1000B000120000000C0E836EB3EC00F0090E836E8C
:1000C000B3EC00F0030E836EB3EC00F0060E836E0B
:1000D000B3EC00F012000000600E836EB3EC00F091
:1000E000300E836EB3EC00F0900E836EB3EC00F034
:1000F000600E836EB3EC00F01200000036EC00F0EE
:10010000222E7DEF00F0080E226E000013EC00F0AE
:10011000222E85EF00F01200000024EC00F0222EC9
:100120008CEF00F0080E226E000013EC00F0222E7F
:1001300094EF00F01200000048EC00F06BEC00F0CF
:100140001200080E226E81B212007DEC00F0000059
:10015000080E226E81B412008CEC00F0000081B613
:100160009BEC00F01200200E216E200E206E202E3F
:10017000B7EF00F0212EB5EF00F01200080E226E4E
:08018000202EC0EF00F0120078
:020000040030CA
:0300010008071ECF
:020005000B816D
:060008000FC00FE00F40E5
:00000001FF
